:020000040800F2
:10000000003C00206902000827230008692100083D
:1000100025230008F1060008513F000800000000F9
:10002000000000000000000000000000A5240008FF
:100030008907000800000000A3240008A724000886
:10004000830200088302000883020008830200087C
:10005000830200088302000883020008830200086C
:10006000830200088302000883020008830200085C
:10007000830200088302000883020008830200084C
:10008000830200088302000883020008830200083C
:10009000830200088302000883020008830200082C
:1000A000830200088302000883020008830200081C
:1000B0001925000883020008830200088302000853
:1000C00083020008830200088302000883020008FC
:1000D00083020008830200088302000883020008EC
:1000E00083020008830200088302000883020008DC
:1000F00083020008830200088302000883020008CC
:1001000083020008830200088302000883020008BB
:1001100083020008830200088302000883020008AB
:10012000830200088302000883020008830200089B
:1001300083020008000000000000000083020008A5
:1001400083020008830200088302000829230008B4
:10015000830200088302000883020008830200086B
:10016000830200088302000883020008830200085B
:100170008302000883020008000000000000000065
:100180008302000800F002F800F05EF80AA090E890
:10019000000C82448344AAF10107DA4501D100F042
:1001A00053F8AFF2090EBAE80F0013F0010F18BFB1
:1001B000FB1A43F001031847403E0000603E000078
:1001C0000A444FF0000C10F8013B13F0070408BF7D
:1001D00010F8014B1D1108BF10F8015B641E05D01B
:1001E00010F8016B641E01F8016BF9D113F0080FD0
:1001F0001EBF10F8014BAD1C0C1B09D16D1E58BF62
:1002000001F801CBFAD505E014F8016B01F8016B98
:100210006D1EF9D59142D6D370470000002300240B
:1002200000250026103A28BF78C1FBD8520728BF06
:1002300030C148BF0B6070471FB59DE8030000F058
:1002400079F91FBD10B510BD00F0D0F91146FFF7C8
:10025000F3FF03F08FFE00F0EEF903B4FFF7F2FFB7
:1002600003BC00F01FFA0000094880470948004716
:10027000FEE7FEE7FEE7FEE7FEE7FEE7FEE7FEE756
:10028000FEE7FEE704480549054A064B70470000B3
:100290001525000885010008001C0020003C0020F6
:1002A000002C0020002C002070B5064600F026F936
:1002B000056806F10B0020F00704B4429CBF002043
:1002C00070BD2B466A68BAB11068A04210D304F121
:1002D000080188423CBF5068586007D35168101924
:1002E00041601168091B016058601460101D70BDE9
:1002F00013465268002AE7D12146284600F006F945
:100300000028DED170BD70B50446051F00F0F6F878
:100310000068002C14BF446870BD002C18BFAC42AC
:100320003CBF20466468F8D301680A18AA4218BF87
:10033000456003D12A6805461144016028684119C7
:10034000A1421CBF6C6070BD61686960216808448F
:10035000286070BD53EA020C00F069802DE9F04B73
:100360004FF00006002B1FBFB3FA83F503FA05F424
:1003700024FA05F65E4012BF1643B2FA82F502FA7D
:1003800005F4C5F120051EBF22FA05FC44EA0C0461
:10039000203556EA044C4FEA144418BF641C4FF051
:1003A00000084FF00009904271EB030C39D300298B
:1003B00019BFB1FA81F701FA07F6B0FA80F700FA2F
:1003C00007F6C7F120071EBF20FA07FC46EA0C0615
:1003D0002037B6FBF4FCA7EB0507103F07F01F0B17
:1003E000CBF120060CFA0BFB2CFA06F644BFB34601
:1003F0000026202FA4BF5E464FF0000B5BEA060CE0
:1004000008BF4FF0010B19EB0B09ABFB027C48EB6B
:100410000608C01B06FB02CC0BFB03CC71EB0C01E6
:10042000C1E70B46024641464846BDE8F08B13B58E
:100430004FF000004FF00001AFF30080BDE81C401A
:10044000704710B5203AC0F00B80B1E81850203A40
:10045000A0E81850B1E81850A0E81850BFF4F5AF64
:100460005FEA027C24BFB1E81850A0E8185044BFEE
:1004700018C918C0BDE810405FEA827C24BF51F85B
:10048000043B40F8043B08BF7047D20728BF31F84F
:10049000023B48BF11F8012B28BF20F8023B48BFA0
:1004A00000F8012B70474FF0000200B51346944648
:1004B0009646203922BFA0E80C50A0E80C50B1F1BC
:1004C0002001BFF4F7AF090728BFA0E80C5048BFD0
:1004D0000CC05DF804EB890028BF40F8042B08BF6E
:1004E000704748BF20F8022B11F0804F18BF00F86A
:1004F000012B7047704770477047000000487047F5
:10050000A41B0020704770477047704738B50446F9
:100510000A4600206946AFF30080002808BF38BDB6
:1005200002460099204600F03FF8012038BD012026
:1005300000F054B8F8B5AFF30080054600200C4633
:10054000102000BF0646A819A0420DD932466946C0
:100550000020AFF30080070008BF00F03FF80098CC
:10056000A04218BF0546C419FFF7C8FF056007463B
:10057000F01D20F007004619284600F00AF8B442A2
:1005800008BFF8BDA21B31463868BDE8F84000F04E
:100590000BB800210160C0E90110704710207047BE
:1005A000004870479C1B0020034640688C4600288A
:1005B00018BF88423CBF03464068F8D31868184407
:1005C000884207D00CF1030020F00700001D411AFB
:1005D000521A0146081D0A60FFF795BE10B500F0DB
:1005E00039F8BDE8104000F02FB870477546FFF7A6
:1005F000D7FFAE4605006946534620F00700854602
:1006000018B020B5FFF73EFEBDE820404FF00006D1
:100610004FF000074FF000084FF0000B21F00701EA
:10062000AC46ACE8C009ACE8C009ACE8C009ACE82D
:10063000C0098D46704710B50446AFF300802046D0
:10064000BDE81040FFF709BE002801D000F02AB82D
:100650007047000010B5012805D0002103A000F06C
:1006600027F8012010BD09A1F8E7000053494752BF
:10067000544D454D3A204F7574206F662068656172
:1006800070206D656D6F7279000000003A2048653A
:100690006170206D656D6F727920636F7272757015
:1006A0007465640001491820ABBEFEE72600020015
:1006B00070B505460C460A2000E06D1C00F011F8EC
:1006C00035B128780028F8D102E0641C00F009F860
:1006D00014B120780028F8D1BDE870400A20AFF3AB
:1006E000008008B569468DF800000320ABBE08BD48
:1006F000FEE70020704700207047000010B5002280
:100700000449054802F06CF90449034802F062F913
:10071000002010BD980E0020D40100209806002073
:1007200070B50C46054601460A4802F053F90948DF
:1007300002F034F9208881B2284600F00FF8002139
:10074000054802E06A5C4254491C22688A42F9D892
:10075000002070BDD401002060000020094A10B5BF
:10076000D2F8B822D2F814220AB1012010BD0A46EC
:100770000146044802F034F9BDE81040014802F097
:100780008DB90000D4010020704772B6FEE700006A
:1007900031B500F059F9009C0546601C02D00448B0
:1007A0000078044400F050F9401BA042FAD338BD51
:1007B000680000202DE9F04FDFF850920023012659
:1007C0000325A9F1040B85B00F2709F1040AABF149
:1007D000040E12E1224606FA03F422407ED091F87C
:1007E00004C00CF0030CBCF1010F02D0BCF1020FED
:1007F00026D1D0F80880CDF800804FEA430805FAEA
:1008000008FCCDF81080DDF8008028EA0C08CDF84F
:100810000080D1F80CC0DDF810800CFA08FCDDF87F
:1008200000804CEA080CC0F808C0D0F804C02CEADC
:10083000040C0C79C4F300149C4044EA0C0444609A
:100840000C79E443A40712D0C4684FEA430CCDF8F6
:1008500008C005FA0CFC24EA0C04D1F80880DDF885
:1008600008C008FA0CF848EA0408C0F80C800C79B3
:1008700004F00304022C16D1DC0800EB840CCDF844
:1008800008C0DCF820C05C074FEAD46807FA08F417
:100890002CEA040C0C6904FA08F444EA0C04DDF8B0
:1008A00008C0CCF8204004684FEA430805FA08FC69
:1008B00024EA0C0491F804C00CF0030C0CFA08FCB8
:1008C0004CEA040CC0F800C04C6814F4403F05D05A
:1008D0004F4CD4F800C04CF4804C00E08CE0C4F8DD
:1008E00000C0246823F0030C04F480440094494CB5
:1008F00064440294D4F808484FEA837C4FEA1C7899
:1009000007FA08FC24EA0C04DFF80CC1604502D1A8
:100910004FF0000C39E0DFF804C1604502D14FF020
:10092000010C32E0DFF8F8C0604502D14FF0020C54
:100930002BE0DFF8F0C0604502D14FF0030C24E05B
:10094000DFF8E4C0604502D14FF0040C1DE0DFF891
:10095000DCC0604502D14FF0050C16E0DFF8D0C0D6
:10096000604502D14FF0060C0FE0DFF8C8C06045CB
:1009700002D14FF0070C08E0DFF8BCC0604502D19F
:100980004FF0080C01E04FF0090C0CFA08FC4CEA9F
:10099000040C029CC4F808C8D9F80040CC46D1F831
:1009A000048094435FEAC82800D51443CCF8004083
:1009B000DAF80040D446D1F8048094435FEA8828EE
:1009C00000D51443CCF80040DBF80040DC46D1F8F9
:1009D000048094435FEA883800D51443CCF8004083
:1009E000DEF80040F446D1F8048094435FEAC8384A
:1009F00000D51443CCF800405B1C0A681446DA406A
:100A00007FF4E8AE05B0BDE8F08F0000083C01407F
:100A1000443802400030014000000240000402401F
:100A200000080240000C0240001002400014024086
:100A300000180240001C0240002002400AB18161FF
:100A400070470904FBE70000014880687047000018
:100A50006800002002488168027811448160704774
:100A6000680000200B4810B5016841F40071016076
:100A7000016841F480610160016841F480710160A6
:100A8000032000F06FF80F2000F006F800F024F8C3
:100A9000002010BD003C024070B50D4D04464FF4DF
:100AA0007A712878B1FBF0F00A490968B1FBF0F0DF
:100AB00000F0FAFF48B9102C07D200222146501E40
:100AC00000F030F800206C6070BD012070BD0000A7
:100AD00068000020740000200A4808B5016841F44D
:100AE00080410160006800F4804000900548001FCC
:100AF000016841F080510160006800F08050009072
:100B000008BD000044380240002809DB00F01F0245
:100B1000012191404009800000F1E020C0F800115F
:100B200070470000F0B40E4B1B680C46C3F3022361
:100B3000C3F10705042D00D90425191D072901D289
:100B4000002300E0DB1E012606FA05F1491E2140C4
:100B500099409E40761E16403143F0BC03F0F9B92F
:100B60000CED00E0064900F0070208684FF6FF03AD
:100B7000184040EA0220034A104308607047000012
:100B80000CED00E00000FA050068416200207047AB
:100B9000F0B50368586A39B19C6A4FF4827600EB6D
:100BA000144400204D1E0AE040EA024098620FE023
:100BB00006EB8007DF59401C04EB1744C0B2A84283
:100BC000F6D344EA02404FF4807202EB81015850A0
:100BD0000020F0BDD0F8000502F0B3B901EBC1026E
:100BE00000EB8202D0F80005926C02F006B901EB2E
:100BF000C10200EB8202D0F80005D2F8882202F090
:100C00005FB9D0F8000502F09EB90A0601F00F01A5
:100C100001EBC10100EB810101D53C3101E001F59F
:100C20001F71006802F0DCBF70B504460B0601F0CE
:100C30000F0000EBC00104EB81014FF001024FF007
:100C4000000503D581F83D203C3103E081F87D5259
:100C500001F51F71087094F8BC04012808D084F8CD
:100C6000BC24206802F0DCFC84F8BC54002070BD79
:100C7000022070BD70B5044601F00F00626890421A
:100C800001D9012070BD0B0601F00F0101EBC1017C
:100C900004EB81014FF001024FF0000503D581F80C
:100CA0003D203C3103E081F87D5201F51F718D70CC
:100CB000087094F8BC04012808D084F8BC2420688B
:100CC00002F01EFE84F8BC54002070BD022070BDEE
:100CD00001F00F0101EBC10100EB8100D0F890029F
:100CE00070472DE9F04104460F0601F00F0000EBBC
:100CF000C00104EB81014FF001064FF0000503D560
:100D000081F83D603C3103E081F87D5201F51F71AF
:100D100008708A600B714A7802B14883022B00D1B7
:100D20004D7194F8BC04012809D084F8BC64206893
:100D300002F0D2FB284684F8BC54BDE8F0810220C2
:100D4000FBE710B501F00F0404EBC40100EB8101D7
:100D5000C1E9A2230023C1F8903281F87D3281F8E5
:100D60007C42C36801F51F71012B00D1CA61027B6F
:100D7000006802F01DFE002010BD70B504460D464F
:100D800001F00F006168884201D9012070BD290679
:100D90004FF000064FF0010207D500EBC00104EB55
:100DA000810181F83D203C3107E005EBC50104EBF2
:100DB000810181F87D6201F51F718A70087094F8D5
:100DC000BC04012807D084F8BC24206802F0C4FDCC
:100DD000280702D007E0022070BD217B04F2C44244
:100DE000206802F061FD84F8BC64002070BD10B57D
:100DF00001F00F0404EBC40100EB8101C1E91223EF
:100E000000230B65012381F83D3001F83C4FC36896
:100E1000012B00D1CA61027B006802F0C9FD0020ED
:100E200010BD00002DE9FC5F05680446284602F06D
:100E300078FF00287DD1206802F09FFF002878D03D
:100E4000D5F80808C0F30D20C4F8FC04206802F0AF
:100E500094FF800704D52068416901F002014161D7
:100E6000206802F08AFFC10604F2C440009034D525
:100E70002168886920F0100088612F6A07F00F0050
:100E800000EBC00004EB8006C7F3434006F51F7675
:100E9000022802D0062811D01AE047F6F070074267
:100EA00016D0C7F30A1217462846F16802F069FF08
:100EB000F0683844F0607069384408E00822284639
:100EC000009902F05EFF7069C7F30A11084470616F
:100ED0002068816941F010018161206802F04DFFB6
:100EE00000034FF0080A4FF0100B4FF001097BD5BB
:100EF0000026206802F020FF074673E0F8076FD055
:100F0000F1B2206802F031FF8046C00707D005EB40
:100F10004611C1F8089B3146204601F00BFA5FEA02
:100F2000087024D505EB4611C1F808AB2068016CA8
:100F300000E01AE200EB46100191D0F8082BFE4BBE
:100F4000994205D9110403D54FF40041C0F8081B9C
:100F5000204600F0F9FAF8490198884207D9E0687C
:100F6000012804D120680121009A02F09DFC5FEA6B
:100F7000C86003D505EB4611C1F808BB5FEA88706D
:100F80001DD56869000605D5D5F8040840F48061D0
:100F9000C5F8041806EBC60004EB800090F87F1239
:100FA00000F51F70012905D10021C170F1B2204662
:100FB00000F0E1F905EB46110220C1F8080B5FEAE9
:100FC000886004D505EB46102021C0F8081B5FEAB5
:100FD000884005D505EB46104FF40051C0F8081BBA
:100FE0007F08761C002F89D1206802F0C6FE4003DE
:100FF0006ED5206802F099FE0746002666E0F807E5
:1010000062D0F1B2206802F09EFE8046C00723D075
:1010100006F00F0209FA02F0D5F834288243C5F829
:10102000342805EB4610C0F80899E06801280FD174
:1010300006EBC60004EB8000D0E911211144816465
:1010400036B9E06C20B920680121009A02F02CFC2E
:10105000F1B22046FFF7C2FD5FEA087003D505EB49
:101060004610C0F808A95FEAC86003D505EB461131
:10107000C1F808B95FEA486004D505EB4610402185
:10108000C0F808195FEA887017D53146284602F083
:101090001BFE06EBC60004EB800090F83F103C30CE
:1010A000012905D10021C170F1B2204600F05FF99D
:1010B00005EB46110220C1F808095FEA086003D574
:1010C0003146204601F09CF97F08761C002F96D10E
:1010D000206802F052FE00280DDAD5F8040820F04E
:1010E0000101C5F80418204600F012FA2068416991
:1010F00001F000414161206802F03FFE00050BD580
:10110000D5F80808C00702D0204600F039FA206858
:10111000416901F400614161206802F02EFEC004C3
:1011200060D5D5F8040820F00101C5F80418102195
:10113000206802F0C9FD00214FF67F3219E000BFA0
:1011400005EB4110C0F80829D0F8003923F400134A
:10115000C0F80039C0F8082BD0F8003B23F4001386
:10116000C0F8003BD0F8003B43F00063C0F8003B00
:10117000491C60688842E3D8D5F81C0840F001118A
:10118000C5F81C18206B002828460DD0D0F884081C
:1011900040F00B01C5F88418D5F8440840F00B0165
:1011A0002846C5F844180DE0D0F8140842F22B0187
:1011B0000843C5F81408D5F8100840F00B0128467C
:1011C000C5F81018D0F8000820F4FE61C5F8001822
:1011D000217B2068009A02F067FB2068416901F4D6
:1011E00080514161206802F0C8FD800416D5206856
:1011F00002F0B2F9206802F087FD206100F076FA73
:1012000023680146227C184602F01AFE204600F0B0
:1012100069F92068416901F400514161206802F0D8
:10122000ACFD000707D5204600F076F9206841693B
:1012300001F008014161206802F09FFD000615D50C
:10124000A86920F08001A96101260CE006EBC60028
:1012500004EB800090F87F02012803D1F1B2204610
:10126000FFF7D3FC761C6068B042EFD8206802F02C
:1012700084FDC00221D501264F4616E005EB46103D
:10128000D0F8001906EBC60004EB800090F840206F
:10129000012A09D1002907DA80F83F70F0B240F046
:1012A00080012046FFF7B1FC761C6068B042E5D8AB
:1012B0002168486900F480104861206802F05DFDF3
:1012C000800232D501204A4627E000BF05EB4011DD
:1012D000D1F8001B00EBC00304EB830393F880629A
:1012E000012E19D1002917DA94F8FC6401F4803139
:1012F00006F00106B1420FD183F87F22A96941F0BF
:101300008003AB616969090606D4D5F8040840F486
:101310000070C5F8040803E0401C61688142D5D81C
:101320002068416901F400114161206802F025FD47
:1013300040000AD5204601E00A30544FFFF74AFC2E
:101340002068416901F080414161206802F015FD8B
:1013500040070AD520684568680702D52046FFF790
:1013600050FC2068416829434160BDE8FC9FD0F8EB
:10137000000501F035BED0F8000501F033BE2DE9BF
:10138000F0418AB0040005D094F8BD042668002519
:1013900020B108E001200AB0BDE8F08184F8BC5417
:1013A000204600F05DF8032084F8BD04F06BC00512
:1013B00000D4E560206802F071FA04F110012822DF
:1013C00088466846FFF73DF894E80F0002F0D2F82F
:1013D0000226C8BB0021206802F0F2FC0020012791
:1013E0000EE000EBC00104EB810181F83D7001F8D3
:1013F0003C0F48830D718D60CD60401CC0B20D6103
:1014000061688142EDD8002011E000EBC00104EBDF
:10141000810181F87D5281F87C0281F88052C1F807
:101420008452C1F88852401CC0B2C1F88C52616825
:101430008142EAD8282241466846FFF702F894E83C
:101440000F0002F06FF910B184F8BD64A2E784F8D0
:10145000385084F8BD74206802F056F900209AE7ED
:1014600010B586B0044614216846FFF71CF82068C2
:10147000B0F1A04F2FD119480021026842F00102BB
:101480000260006800F0010005904FF4C050009029
:101490000220CDE90101032003900A20049069464F
:1014A0000F48FFF787F90D48001D016841F08001E2
:1014B00001600A481430016841F48041016000680D
:1014C000002200F48040059011464320FFF72AFBDC
:1014D0004320FFF719FB06B010BD00003038024072
:1014E0000000024070B504460069012570B1022871
:1014F00001D0FFF74AF92946D4F8000501F0C7FDED
:10150000D4F80005BDE8704001F083BD0025F2E786
:10151000D0F8000501F0A5BDD0F8000501F0ABBD85
:1015200010B5044690F8BC0401280BD0012084F8C3
:10153000BC0484F83810206802F070FC002084F8A5
:10154000BC0410BD022010BDD0F8002500F2C4413B
:10155000104601F0A8BD10B5044690F8BC0401285F
:101560000CD0012084F8BC04206802F088FB2068BD
:1015700002F0BCF8002084F8BC0410BD022010BDAD
:1015800010B50446D0F8000501F0CCFD2068D0F875
:10159000001E41F00101C0F8001E206A002804D09E
:1015A0000248016841F00601016010BD10ED00E045
:1015B0002DE9F0470E46050063D0DFF81C81D8F80E
:1015C0000000F7B200F00F00B04207D288F80070B8
:1015D000D8F8000000F00F00B04252D128683F4C0C
:1015E000810712D5400703D5206840F4E050206001
:1015F0002878000703D5206840F460402060206808
:10160000A96820F0F000084320602878C0072BD09C
:10161000324968680839012810D00968022810D0BA
:10162000890700292DDA216821F003010143216097
:10163000FFF70AFA814641F2883A0EE00968890309
:10164000EFE78901EDE700BFFFF7FEF9A0EB090125
:10165000514502D90320BDE8F0872068696800F091
:101660000C00B0EB810FEFD1D8F80010404601F02C
:101670000F01B14207D90770006800F00F00B042B7
:1016800001D00120E7E72878400705D52068E96800
:1016900020F4E050084320602878000706D5206831
:1016A000296920F4604040EAC100206000F024F87D
:1016B0002168F02292FAA2F201F0F001B2FA82F26D
:1016C000D140074A515CC840064908600648006896
:1016D000FFF7E2F90020BEE7003C02400838024074
:1016E000E83F0008740000206C00002001480068FA
:1016F0007047000074000020154810B5006810F015
:101700000C02144813D01449042A0FD0082A0ED111
:101710000F4C241F2268236802F03F025B0207D5AA
:101720002068C0F38810A0FB010106E0084610BD48
:101730002168C1F38811A1FB00010023FEF70AFE16
:101740002168C1F30141491C4900B0FBF1F010BD13
:10175000083802400024F40040787D012DE9F84F5C
:1017600004007BD0DFF828B32078ABF10406C00773
:10177000A6F1040536D0DBF800105846C1F381010C
:10178000012907D00068C0F38100022809D1306820
:10179000400206D52868800324D560680028E0D080
:1017A00020E0BB492079891F0870606868B1FFF7A5
:1017B0004BF9074605E000BFFFF746F9C01B642858
:1017C00076D828688003F7D50CE0FFF73DF9074687
:1017D00005E000BFFFF738F9C01B6428F0D828687F
:1017E0008003F7D42078DFF8AC8280074FF000093F
:1017F00044D5DBF80010584611F00C0F4FF0F80AF2
:1018000007D00068C0F38100022809D13068400287
:1018100006D42868800715D5E06801281ED111E09C
:10182000E068E0B10120C8F80000FFF70DF90746B5
:1018300005E000BFFFF708F9C01B0228C0D82868E0
:101840008007F7D528689AFAAAF22169B2FA82F2DB
:1018500020F0F8009140084328600FE013E1C8F839
:101860000090FFF7F1F8074605E000BFFFF7ECF83E
:10187000C01B02281CD828688007F7D420780007EE
:1018800027D5DFF80CA2844861690AF16C0A81B19E
:1018900001210160FFF7D8F8074604E0FFF7D4F80C
:1018A000C01B022804D8DAF800008007F6D510E043
:1018B00082E0C0F80090FFF7C7F8074605E000BFD8
:1018C000FFF7C2F8C01B022876D8DAF800008007BC
:1018D000F6D4207840075FD5DFF8B4A100270AF1DD
:1018E000380ADAF80000C0000BD4DAF8001041F032
:1018F0008051CAF80010DAF80000012700F080508B
:1019000000906648016841F4807101600168C90572
:1019100012D4016841F480710160FFF795F80090DE
:1019200006E000BFFFF790F80099401A02287ED821
:101930005A480068C005F5D55549207A68310870C5
:10194000A06888B1FFF780F8009007E0FFF77CF807
:101950000099411A41F28830814268D84C48683079
:1019600000688007F2D510E0FFF76EF8009007E0FE
:10197000FFF76AF80099411A41F28830814256D83F
:101980004348683000688007F2D42FB1DAF80010BD
:1019900021F08051CAF80010A069B8B3DBF800103C
:1019A000C1F38101022949D00228C8F8609004D00F
:1019B000FFF74AF804463DE039E0FFF745F80746EF
:1019C00005E000BFFFF740F8C01B64282FD8286847
:1019D0008001F7D4D4E907010843616A94F82C2008
:1019E000890141EA02610843A16A2D4A490802EBD4
:1019F0000141084331682B4A1140084330600120FF
:101A0000C8F86000FFF720F8044606E03DE000BF9C
:101A1000FFF71AF8001B642809D828688001F7D559
:101A200033E000BFFFF710F8001B642802D9032041
:101A3000BDE8F88F28688001F4D426E00128F7D0AB
:101A40003068E26900F4800191421CD1226A00F002
:101A50003F01914217D147F6C071626A0140B1EB74
:101A6000821F10D1A26A4FF0FF3300F4403103EB24
:101A70005202B1EB024F06D194F82C1000F07060C6
:101A8000B0EB016F01D00120D2E70020D0E70000C9
:101A90000838024000004742800E47420070004074
:101AA0000000FFFF0080BCF010B5401EB0F1807F49
:101AB00001D3012010BD4FF0E02460610F216017B9
:101AC00002F047FA0020A06107202061002010BD2D
:101AD0007047704770B590F83C20012A32D001243D
:101AE00080F83C40022280F83D2003685A689D68D7
:101AF00022F070060A6832435A60134B02689A4219
:101B000014D0B2F1804F11D0104B9A420ED0104B2E
:101B10009A420BD00F4B9A4208D00F4B9A4205D0F5
:101B20000E4B9A4202D00E4B9A4204D1496825F0DE
:101B300080031943916080F83D40002180F83C10FB
:101B4000084670BD022070BD000001400004004046
:101B500000080040000C004000040140004001402B
:101B60000018004010B5040003D094F83D0010B1F7
:101B700007E0012010BD002084F83C00204600F062
:101B80001FF8022084F83D00211D206800F0CAFCE7
:101B9000012084F8460084F83E0084F83F0084F871
:101BA000400084F8410084F8420084F8430084F83F
:101BB000440084F8450084F83D00002010BD00007A
:101BC00008B50068B0F1804F12D10A48016841F0B1
:101BD000010101600068002200F001000090114640
:101BE0001C20FEF79FFFBDE808401C20FEF78CBFBD
:101BF00008BD00004038024070B5044690F83C0033
:101C00000025012817D0012684F83C60022084F8C2
:101C10003D002068826822F0770222F47F428260D1
:101C20000868502838D00DDC20284FD005DC90B350
:101C3000102811D14AE0022070BD302846D040283B
:101C40000AD13BE060282FD070280DD0B0F5805F1E
:101C500003D0B0F5005F12D0012584F83D6000206C
:101C600084F83C00284670BDCB68D1E9012120688A
:101C700000F0C9FC2068816841F0770109E0CB6879
:101C8000D1E90121206800F0BEFC2068816841F4A0
:101C900080418160E1E719E0CA684968206800F086
:101CA00087FD5021206806E0CA684968206800F076
:101CB00090FD6021206800F0B0FCCEE7CA6849685A
:101CC000206800F075FD40212068F4E72268014695
:101CD0001046F0E7704770B50446006801694FF0A0
:101CE0000005C943890715D4C168C943890711D4C0
:101CF000E91E016101202077206880698007204665
:101D000002D0FFF7E7FF04E000F0BEF8204600F045
:101D100050F9257720680169C943490717D4C1687C
:101D2000C943490713D46FF00401016102202077F1
:101D30002068806910F4407F204602D0FFF7CAFF78
:101D400004E000F0A1F8204600F033F92577206880
:101D50000169C943090716D4C168C943090712D4E8
:101D60006FF008010161042020772068C0698007B6
:101D7000204602D0FFF7AEFF04E000F085F82046D1
:101D800000F017F9257720680169C943C90617D4FF
:101D9000C168C943C90613D46FF01001016108205E
:101DA00020772068C06910F4407F204602D0FFF7FA
:101DB00091FF04E000F068F8204600F0FAF825777B
:101DC00020680169C943C90708D1C168C943C90767
:101DD00004D1891E0161204600F0C4F92068016920
:101DE000C943090609D4C168C943090605D46FF07F
:101DF000800101612046FFF76BFE20680169C9433D
:101E0000490609D4C168C943490605D46FF04001A9
:101E10000161204600F0A7F920680169C9438906DD
:101E20000BD4C168C943890607D46FF02001016152
:101E30002046BDE87040FFF74CBE70BD10B586B0BF
:101E4000044614216846FEF72EFB2068B0F1804F4F
:101E500014D10B480021026842F0010202600068C0
:101E6000022200F00100059001200090CDE901213F
:101E7000CDE9031069460348FEF79CFC06B010BD8F
:101E80003038024000000240704770B5044690F8B8
:101E90003C0000260D4601280FD0012084F83C00AC
:101EA0006AB1042A1DD0082A2FD00C2A3FD001265F
:101EB000002084F83C00304670BD022070BD2068D0
:101EC00000F0B4FB2068816941F00801816120685D
:101ED000816921F004018161206881692A691143C7
:101EE00011E0206800F0D2FB2068816941F40061B4
:101EF00081612068816921F4806181612068816944
:101F00002A6941EA02218161D2E7206800F0F4FBEE
:101F10002068C16941F00801C1612068C16921F0F0
:101F20000401C1612068C1692A69114311E0206878
:101F300000F016FC2068C16941F40061C1612068AD
:101F4000C16921F48061C1612068C1692A6941EADF
:101F50000221C161ACE710B5040003D094F83D0044
:101F600010B107E0012010BD002084F83C0020469D
:101F700000F01EF8022084F83D00211D206800F0CA
:101F8000D1FA012084F8460084F83E0084F83F002E
:101F900084F8400084F8410084F8420084F843004B
:101FA00084F8440084F8450084F83D00002010BD0A
:101FB0007047704730B500250446022249B1042914
:101FC00012D008294CD094F84100012853D00120A8
:101FD00030BD94F83E000128F9D184F83E202068F5
:101FE000C26842F0020209E094F83F000128EED1F5
:101FF00084F83F202068C26842F00402C2600122D7
:10200000206800F0F3FA21492068214A884201D073
:10201000904203D1436C43F40043436420688842F8
:1020200013D0B0F1804F10D01A4988420DD01A4910
:1020300088420AD01949884207D0904205D01849F1
:10204000884202D01749884204D1816801F0070113
:10205000062903D0016841F001010160284630BD26
:1020600094F840000128B2D184F840202068C2686A
:1020700042F00802C2E784F841200C2901D0012572
:10208000ECE72068C26842F01002B7E700000140A8
:10209000000401400004004000080040000C004023
:1020A000004001400018004070B50D0004464FF09C
:1020B000000607D0042D0AD0082D0DD00C2D10D00D
:1020C00001263FE02068C16821F002010DE0206890
:1020D000C16821F0040108E02068C16821F008010E
:1020E00003E02068C16821F01001C1600022294688
:1020F000206800F07BFA194B41F2111120688A1018
:10210000984202D0164B984209D1036A0B4206D17D
:10211000036A134203D1436C23F4004343642068F1
:10212000036A0B4206D1016A114203D1016821F012
:102130000101016001203DB1042D08D0082D09D016
:1021400084F84100304670BD84F83E00FAE784F818
:102150003F00F7E784F84000F4E70000000001408A
:102160000004014070477047FEE70000F0B500230F
:102170000A24302537261F4611E000BFB4EB107F3C
:1021800002D905EB107C01E006EB107C01F813C0CE
:1021900001EB430C00015B1C8CF80170DBB2934235
:1021A000ECD3F0BDF0B587B014216846FEF77BF99B
:1021B0001F480025016841F080010160016801F0BD
:1021C00080010591016841F004010160016801F09E
:1021D00004010591016841F0010101600068154E9C
:1021E00000F001000590002207213046FEF726FC92
:1021F000012208213046FEF721FC0F4F0022022168
:102200003846FEF71BFC01240F20CDE90004694687
:102210003046CDE90245FEF7CDFA0220CDE90004B3
:1022200069463846CDE90245FEF7C4FA07B0F0BD6D
:1022300030380240000802400000024010B58EB065
:1022400000240794089409940A940B941C2168466E
:102250000C94FEF728F91D484FF08041016047219A
:10226000C0E90114C46004618461FFF77BFC08B11C
:10227000FEF78BFA4FF48050079007A91348FFF739
:10228000BBFC08B1FEF781FA1048FFF764FE08B105
:10229000FEF77BFA0B940BA90C480C94FFF71AFC81
:1022A00008B1FEF772FA6020CDE900040294002222
:1022B000694606480494FFF7E8FD08B1FEF765FAA1
:1022C0000248FFF7BBFD0EB010BD00008C010020DE
:1022D00010B500220F49104800F068FD08B1FEF764
:1022E00054FA0E490C4800F043FF08B1FEF74DFACE
:1022F0000B49094800F066FB08B1FEF746FA0648AC
:1023000000F08CFF002803D0BDE81040FEF73DBA76
:1023100010BD000000000020D40100205401002066
:1023200050000020FEE7FEE70148FEF77BBD0000FD
:10233000981600202DE9F04103680D4604461E6CF6
:1023400003EB4511D1F8080BD4F80CE04FF400472B
:102350004FF0200C04F2C442BEF1010F09D0DFF8A7
:1023600098E0764539D1020432D500BFC1F8087B28
:102370003FE0224B5FEA007E04D59E4239D900043B
:10238000F4D436E05FEA806E02D5C1F808CB30E0C5
:1023900010F0280F2DD19E4201D90004E6D405EBA0
:1023A000C50004EB8000D1F8101BD0F89C32C1F3BB
:1023B0001201591AC0F8901200F51F70ADB90369E7
:1023C0001BB1C2681144C1600FE0012120680AE01E
:1023D00080060AD5C1F808CB07E035B9D4F88C02DD
:1023E00018B90021184601F05FFAE9B22046FEF75D
:1023F000FEFB0020BDE8F0810A31544F0A30544FF3
:102400002DE9F84F0E4601EBC60100EB8104814631
:102410000568D4E913103C34884202D90120BDE894
:10242000F88F081AA168814200D20846C01C8708AC
:1024300005EB46181BE000BFA0EB010AA068504561
:1024400000D282460AF10300870899F80C00009038
:102450001FFA8AF3F2B22846E16801F065FDE168EF
:1024600001EB0A00E060616901EB0A006061D8F8E5
:10247000180980B2B84205D3D4E90401814201D2DF
:102480000028D9D1D4E90401884208D806F00F0108
:1024900001208840D5F834188143C5F8341800204D
:1024A000BDE770477047FEF7D5BA30B591B030211F
:1024B0006846FDF7F8FF14210CA8FDF7F4FF012092
:1024C0000390022410200490009400250694082014
:1024D000CDE90750D820099006200A9009200B90DA
:1024E0006846FFF73BF908B172B6FEE70CA90F206A
:1024F00081E831004FF4A0500F904FF480501090BD
:1025000002210CA8FFF754F8002801D072B6FEE7AC
:1025100011B030BD704700000148FFF7DCBB000080
:102520008C010020F0B50268254C264D264E274F21
:10253000274B4FF0804CA04209D0604507D0A842FD
:1025400005D0B04203D0B84201D0984204D122F065
:10255000700E4A6842EA0E02A0421BD0604519D0B4
:10256000A84217D0B04215D0B84213D0984211D02B
:10257000184DA8420ED0184DA8420BD0174DA842B6
:1025800008D0174DA84205D0164DA84202D0164DCE
:10259000A84203D122F44075CA682A434D6922F04B
:1025A00080022A4302608A68C2620A688262A0428C
:1025B00001D0984201D10969016301214161F0BD57
:1025C000000001400004004000080040000C0040F2
:1025D0000004014000400140004401400048014027
:1025E00000180040001C00400020004010B501F021
:1025F0001F030121046A99408C430462016A9A40D6
:102600001143016210BD10B5846842EA032224F42C
:102610007F440A432243826010BD826822F0700228
:102620000A4342F00701816070470000F0B5036A79
:10263000026A22F00102026242688469124E24F0AA
:1026400073050C682C4323F002058B682B430D4D5A
:10265000A84201D0B04205D123F00807CB683B4324
:1026600023F00403A84201D0B04205D14D6922F401
:10267000407215438A692A43426084614968416314
:102680000362F0BD0000014000040140F0B5026AA1
:10269000036A23F010030362436884690D6824F41D
:1026A000E64444EA05248D6822F0200242EA05123D
:1026B0000F4D104EA84201D0B04206D1CF6822F093
:1026C000800242EA071222F04002A84201D0B04242
:1026D00007D14D6923F4406343EA85038D6943EADA
:1026E000850343608461496881630262F0BD000034
:1026F0000000014000040140F0B5026A036A23F4BF
:10270000807303624368C46922F4007224F0730585
:102710000C68124E2C438D6842EA05220E4DA842E9
:1027200001D0B04206D1CF6822F4006242EA07220B
:1027300022F48062A84201D0B04207D14D6923F44F
:10274000405343EA05138D6943EA05134360C461AE
:102750004968C1630262F0BD00000140000401400D
:1027600030B5046A026A22F4805202624268C36988
:102770000D6823F4E64343EA05238D6824F40054EE
:1027800044EA0534084DA84202D0084DA84204D1BD
:102790004D6922F4804242EA85124260C361496871
:1027A0000164046230BD00000000014000040140EB
:1027B00010B5036A046A24F001040462846924F0F9
:1027C000F00444EA021423F00A020A43846102621C
:1027D00010BD10B5036A046A24F010040462846911
:1027E00023F0A00324F4704444EA023243EA0111C6
:1027F0008261016210BD2DE9F041D0F8C032D0F8FD
:10280000B822DAB101EB810400EB84040025E6690B
:102810004EB101EBC10703EB87035B6CB6FBF3F72B
:1028200003FB176323B1C2F814520020BDE8F08106
:1028300000231A46E56100F07EFCF6E70220F5E78A
:1028400070B50546D0F8B84200F088FBC4F80C0219
:10285000D5F8B80248B1D5F8BC12D4F80402CA6859
:1028600004F503719047002070BD022070BD70B563
:1028700004460026812100F0B7FA002501212046F8
:10288000E56200F0B1FA82212046C4F86C5100F0F4
:10289000ABFA2564D4F8B80248B1D4F8BC0204F508
:1028A0002E74406880472068FDF72DFD2560304676
:1028B00070BD10B5D0E9AE4159B194F80002FF28BF
:1028C00007D08B6894F8012221469847FF2084F8AE
:1028D0000002002010BD00000A210180004870475E
:1028E0007C0000204321018000487047CC0000207C
:1028F0004321018000487047880000204321018067
:1029000000487047100100202DE9F04104460026E0
:10291000007C4FF40077012590B3402302228121EF
:10292000204600F061FB4023E5620222012120469F
:1029300000F05AFB0823032282212046C4F86C5180
:1029400000F052FB4FF407702564FDF7ADFCC4F8AE
:10295000B802F8B10546D4F8BC02006880470020F0
:10296000C5F81402C5F81802207CD5F8042298B1E5
:1029700040230121204600F043FB3046BDE8F081B2
:10298000FFE73B4602228121204600F02DFB3B461B
:10299000E562CAE70126F0E73B46EAE710B5D0F862
:1029A000B81269B1027C002AD1F8042205D0402374
:1029B000012100F025FB002010BD4FF40073F7E764
:1029C000022010BD02460220002902D00020C2F8D9
:1029D000BC127047D0F8B802C0F80412002070474B
:1029E000D0F8B802C0F81022C0F8081200207047D2
:1029F0002DE9FC410546D0F8B87200208DF80000A2
:102A0000ADF80400064608780C4610F0600121D0AD
:102A100020293BD1E288AAB10006607807D5D5F815
:102A2000BC128B6839469847E288394626E087F819
:102A30000002A07987F80102E2883946284600F0B2
:102A40006AF828E0D5F8BC12607800228B6821462D
:102A5000984720E0607820B10A2809D00B2815D1CA
:102A600010E095F89C02032810D1022201A905E08C
:102A700095F89C02032809D101226946284600F0F6
:102A800064F808E095F89C02032804D02146284603
:102A900000F036F802263046BDE8FC8110B5D0F8CB
:102AA000B812A1B1D1F814220AB1012010BD01223F
:102AB000C1F81422D1F810220263B1F8102293B2A7
:102AC000D1F80822812100F036FB002010BD022041
:102AD00010BD10B5D0F8B42252689047002010BD48
:102AE000134610B50A46002100F08AFA002010BDF6
:102AF000134610B50A46002100F01DFB002010BD52
:102B000010B50446802100F0FBFA2046BDE81040D5
:102B1000002100F0F5BA10B50323C0F85C21C0F81D
:102B20009432C0F8602113460A46002100F068FA8A
:102B3000002010BD10B505210023C0F894121A46DC
:102B4000194600F05DFA002010BD10B50223C261E5
:102B5000C0F89432026213460A46002100F0EBFAF4
:102B6000002010BD10B504210023C0F894121A46AD
:102B7000194600F0E0FA002010BD000010B50A462A
:102B8000024903A000F0E2F8004810BD98040020BC
:102B900043444320436F6E6669670000122008803B
:102BA000004870472000002010B50A46024903A0E3
:102BB00000F0CCF8004810BD9804002043444320A6
:102BC000496E7465726661636500000004200880C8
:102BD000004870471C00002010B50A46024903A0B7
:102BE00000F0B4F8004810BD9804002053544D691B
:102BF00063726F656C656374726F6E6963730000F6
:102C000010B50A46024903A000F0A0F8004810BD24
:102C10009804002053544D33322056697274756104
:102C20006C20436F6D506F727400000010B51A2055
:102C300008800A480168001D0468001D0068081823
:102C400009D008220649FFF791FA054904221031FC
:102C50002046FFF78BFA0248801E10BD107AFF1F36
:102C600036000020F8B504460020ADF80000488882
:102C70000D46010A082948D2DFE801F04704091788
:102C800047473C45D4F8B012207C0A6819E0207C04
:102C900002260028D4F8B40205D0C16A68468847E5
:102CA000014646703EE0816AF8E7C0B206282CD2A1
:102CB000DFE800F0030A1014181CD4F8B0024268D0
:102CC00005E0694690471CE0D4F8B0028268E2B1A2
:102CD000207CF6E7D4F8B002C268F8E7D4F8B00276
:102CE0000269F4E7D4F8B0024269F0E7D4F8B00220
:102CF0008269ECE7207C40B9D4F8B402416B6846A5
:102D0000884701460EE0207C20B129462046FFF787
:102D1000F7FEF8BDD4F8B402016B68468847014657
:102D200007204870BDF8000048B1EA8852B18242DD
:102D300000D90246ADF800202046FFF706FFE888DC
:102D40000028E6D12046FFF70DFFF8BD70B500233F
:102D500000281ED00446002502E06D1CEDB2641C64
:102D60002678002EF9D1022404EB45041480127851
:102D7000CA545B1C0322CA5400245B1C06E0CA54DC
:102D80005B1CDAB28C54521CD3B2401C0278002A6D
:102D9000F5D170BD01004FF0000004D0012901D031
:102DA000022901D0022070470120704710B580B180
:102DB000D0F8B43213B10023C0F8B43209B1C0F86E
:102DC000B012012180F89C12027000F0CBF80020B4
:102DD00010BD022010BD10B5D0F8C002FDF74AFFAB
:102DE000BDE81040FFF7D6BF10B5D0F8C002FDF720
:102DF0001BFFBDE81040FFF7CDBF2DE9F04117469E
:102E0000044651B1D4F8B40242691AB194F89C0254
:102E1000032851D00220BDE8F081D4F89432002577
:102E200004F11400022B03D0042B3AD0C3B33CE0CE
:102E3000D0E903639E4207D9F11AC1608AB23946CC
:102E40002046FFF755FE12E08068B0FBF3F103FB6C
:102E5000110199B9984211D3D4F8981288420DD231
:102E6000002211462046FFF743FEC4F89852002383
:102E70001A461946204600F0C3F816E0D4F8B4020A
:102E8000C16829B194F89C02032801D120468847E3
:102E90008021204600F034F92046FFF74BFE04E085
:102EA000FFE78021204600F02BF994F8A0020128CA
:102EB00004D184F8A05201E0204690470020AAE700
:102EC00070B51546044649B1D4F8B40282691AB106
:102ED00094F89C02032830D0022070BDD4F89412DC
:102EE00004F5AA70032902D005291ED027E0D0E9F5
:102EF00003218A420BD9531AC3600846834200D388
:102F000003469AB229462046FFF7EAFD17E0D4F8B7
:102F1000B402016929B194F89C02032801D120462A
:102F200088472046FFF71EFE09E000200146C4F84E
:102F30009402204600F0E4F801E02046904700208B
:102F400070BD0020704710B5012180F89C12D0F8A8
:102F5000B422017952689047002010BDD0F8C00219
:102F6000FDF7B6BE10B5017831BB14490222C1F895
:102F70000005C0F8C0124FF0A0400860042048606F
:102F80000020C1E90302C1E906200862C8620863A3
:102F90000846FEF7F4F908B1FDF7F7FB8021074872
:102FA000FDF7F2FD402200210448FDF7F1FD8022EB
:102FB00001210248FDF7ECFD002010BD981600200D
:102FC0000A0601F07F01D0F8C00201EBC10100EB5D
:102FD000810002D590F83E00704790F87E0270475D
:102FE000002070470020704710B51C461346D0F8EB
:102FF000C0022246FDF775FEBDE81040FFF7CABECD
:1030000010B5D0F8C002FDF79CFEBDE81040FFF7F8
:10301000C1BE70B50022044640231146FFF7E4FF0D
:1030200040260125C4F864613346002280212046F1
:10303000C4F85851FFF7D8FF6662A56184F89C5226
:103040000020C4F894026060C4F8A402D4F8B80266
:1030500028B1D4F8B40200214268204690470020ED
:1030600070BD90F89C12042903D190F89D1280F84D
:103070009C120020704710B590F89C12032904D1CF
:10308000D0F8B412C96901B18847002010BD01749D
:103090000020704710B5D0F8C002FEF741FABDE835
:1030A0001040FFF777BE70B5044600F52A7005465C
:1030B00000F04AF80120C4F89402B4F8AE02C4F853
:1030C000980294F8A80210F01F010AD001290DD02F
:1030D000022910D000F08001204600F011F80020F5
:1030E00070BD2946204600F09EF8F8E729462046A4
:1030F00000F0CAF9F3E72946204600F01DF9EEE793
:1031000010B5D0F8C002FDF738FEBDE81040FFF75B
:1031100041BE10B5D0F8C002FEF71DFABDE8104060
:10312000FFF738BE90F89C1280F89D12042180F8B9
:103130009C120020704710B5D0F8C002FDF757FE72
:10314000BDE81040FFF726BE0A7802704A78427048
:103150008A78CB7802EB032242800A794B7902EB22
:10316000032282808A79C97902EB0121C1807047EC
:103170000246002011B1C2F8B41270470220704715
:1031800010B5D0F8B42202241AB11268904700B9E1
:103190000024204610BD000070B50E461E4D8978F3
:1031A00004462970012931D894F89C0202280BD0DA
:1031B00003280FD031462046FFF7A2FC297820468D
:1031C000BDE87040FFF785BCD9B10320616084F889
:1031D0009C0209E071B16068884212D0C1B22046F9
:1031E000FFF777FC297861602046FFF7C9FF0228C6
:1031F0000CD006E0022084F89C0220466160FFF7B4
:1032000068FC2046BDE87040FFF7ACBC3146204664
:10321000BDE87040FFF774BC7800002010B5FFF7E0
:1032200078FF002010BD2DE9F0410A78002612F049
:10323000600208D0202A01D0402A70D1D0F8B422F0
:10324000926890476DE04B78002201250A2B66D2E8
:10325000DFE803F0405D6557650805652C29FFF739
:1032600001FD5EE004468888D8B9C888C8B9488896
:10327000802816D200F07F0794F89C02032810D013
:1032800084F89E7239462046FFF704FF2046FFF778
:1032900069FC1FB1022084F89C0242E084F89C5231
:1032A0003FE020463BE0FFF777FF3AE0CB88012B79
:1032B00035D190F89C32012B04D0022B02D0032B85
:1032C0002DD104E08260012200F1080116E0012204
:1032D000011D13E090F89C22012A03D0022A01D09C
:1032E000032A1CD1CA88022A19D1C560D0F8A412B9
:1032F00009B10321C160022200F10C01FFF725FC96
:103300000FE0498801290CD1C0F8A45211E090F8CF
:103310009C32012B08D0022B06D0032B04D0FFF7E0
:10332000EFFB3046BDE8F08149880129F9D1C0F8AA
:10333000A422FFF717FCF4E72DE9F0410A46044602
:1033400010780027097910F060030AD0202B01D0F3
:10335000402B50D1D4F8B4021146836820469847D8
:103360008FE0C0F34110012806D05078D0B3012877
:103370002AD003283FD107E0D4F8B402114683686D
:103380002046BDE8F041184794F89C02022802D07C
:10339000032872D10AE071B380296ED02046FFF76E
:1033A000AFFE80212046FFF7ABFE6AE0508838B9B7
:1033B00031B1802904D0D08810B92046FFF7A0FE93
:1033C0002046FFF7CFFB5CE094F89C020228E2D095
:1033D000032852D1508898BB4806F1D02046FFF709
:1033E000FAFCEDE7FFE794F89C020026022803D0E0
:1033F000032842D112E040E009B180293DD10806FE
:1034000001F07F0000EB800004EB800101D5143156
:1034100001E001F5AA7102220E602AE0080601F01F
:103420000F0000EB800004EB80000AD5806920B318
:1034300001F07F0000EB800004EB800514350BE009
:103440001FE0D0F85801C0B101F07F0000EB800010
:1034500004EB800505F5AA7541B1802906D0204608
:10346000FFF7AEFD10B10120286000E02E600222BF
:1034700029462046FFF769FB03E011462046FFF787
:103480003FFB3846BDE8F08170B5054608780C462C
:1034900010F0600003D0202801D0402816D195F804
:1034A0009C02012803D0022801D003280ED12079E4
:1034B00001280BD8D5F8B402826828469047E188E5
:1034C000014306D12846FFF74DFB02E02846FFF7EF
:1034D00017FB002070BD000070B50A78012302F0D0
:1034E0000F054E78AB401B4CD0F81C58012E17D05E
:1034F00045EA0343C0F81C3800EB4210D0F8002B1B
:1035000012040BD4D0F8002B0B890979C3F30A03FA
:103510001A4344EA81410A43C0F8002B002070BDE1
:103520009BB21D43C0F81C5800EB4210D0F8003984
:103530001B04F3D4D0F800390D890979C5F30A05C5
:1035400089042B4341EA82510B432343C0F80039DD
:10355000E4E7000000800010D0F800196FF30A01C2
:10356000C0F80019D0F8041841F48071C0F80418AC
:103570000020704770B5044606990D981D46012934
:1035800015D0E06840F04000E060204600F028F8E8
:10359000A16B41F48031A163012D07D1A16841F0F5
:1035A0000601A160A16841F02001A16070BDA16B7E
:1035B00021F48031A163E168084A1140E160E168CB
:1035C00021F44011E160012803D1E06840F480104B
:1035D000E060204600F004F8DEE70000BFFFBDFF1A
:1035E00008B500220D490092009B5B1C00938B42A2
:1035F0000CD80369002BF7DA0092026942F001024D
:103600000261009A521C00928A4201D9032008BD2F
:103610000269D207F5D1002008BD0000400D03006B
:1036200030B54C780A78012300EB4212012C2CD0E3
:10363000D2F8004B002C0BDAD2F8004B44F00064B7
:10364000C2F8004BD2F8004B44F08044C2F8004B63
:10365000D0F83C580C7804F00F0403FA04F425EA7F
:103660000444C0F83C48D0F81C48097801F00F0128
:103670008B4024EA0341C0F81C18D2F8000B19490A
:103680000840C2F8000B002030BDD2F80049002CE1
:103690000BDAD2F8004944F00064C2F80049D2F8CD
:1036A000004944F08044C2F80049D0F83C480D7805
:1036B00005F00F0503FA05F5ADB2AC43C0F83C4880
:1036C000D0F81C48097801F00F018B4099B28C4367
:1036D000C0F81C48D2F8000903490840C2F80009A4
:1036E000D1E700000078F3EF007833ECD0F8001E4B
:1036F00021F00301C0F8001ED0F8041821F00201E7
:10370000C0F8041800207047D0F8001E21F0030113
:10371000C0F8001ED0F8041841F00201C0F80418E7
:10372000002070472DE9F04F0025DDE90B2B0E46F8
:103730000446DDF824C0DDF840709A462846294644
:1037400004EB8003C3F80411401C0F28F8D3204673
:10375000A7B1806B20F40013A363A06B40F4002397
:10376000A363084688462146C4F8000E012A17D0F4
:103770000846D1F8001841F0030119E0D0F8040818
:1037800040F00203C4F80438A06B40F40013A363B4
:10379000A06B20F40023A363A06B20F48023DFE759
:1037A0000846D1F80018BCF1000F01D041F001012A
:1037B000C0F80018102100F087FA00B1012520465A
:1037C00000F064FA00B101254046C4F81088C4F83E
:1037D0001488C4F81C8800214FF0006C4FF0904909
:1037E0004FF67F3315E000BF04EB4112D2F8008999
:1037F000B8F1000F06DA11B1C2F8009904E0C4F87C
:1038000000C901E0C2F80009C2F81009C2F808397D
:10381000491C8E42E8D8002115E000BF04EB41129C
:10382000D2F8008BB8F1000F06DA11B1C2F8009B94
:1038300004E0C4F800CB01E0C2F8000BC2F8100BA2
:10384000C2F8083B491C8E42E8D8D4F8101821F47D
:103850008072C4F81028A0616FF080406061BAF1F6
:10386000000F03D1A06940F01000A061A0690949D0
:103870000843A061BBF1000F03D0A06940F008002D
:10388000A061012F03D1A06903490843A061284624
:10389000BDE8F08F00383C8004000040816821F0D2
:1038A000010181600020704710B5036C134CA342E6
:1038B00003D9D0F8003B002B1EDB0023C0F8103BDF
:1038C000D0F8103B43F40023C0F8103BD0F8103B75
:1038D00043F01803C0F8103BD0F8103B43F0C0434E
:1038E000C0F8103B012907D1C0F8142BD0F8001BF9
:1038F00041F08021C0F8001B002010BD0A30544F59
:103900004A780B78012A00EB43100BD0D0F8002B3B
:1039100022F40012C0F8002B0979032914D00229DF
:1039200012D017E0D0F8002922F40012C0F80029C4
:103930000979032901D002290CD1D0F8001941F0EE
:103940008051C0F8001905E0D0F8001B41F080510B
:10395000C0F8001B002070470A784B78D1B200EB0A
:103960004110012B12D0D0F8001B002906DB2AB130
:10397000D0F8001B21F08041C0F8001BD0F8001BDC
:1039800041F40011C0F8001B00207047D0F8001966
:10399000002906DB2AB1D0F8001921F08041C0F8D7
:1039A0000019D0F8001941F40011C0F80019EBE734
:1039B000F8B50C784F78894DE3B26FF0604600EBB4
:1039C0004313012F29D0D3F8107B6FF31207C3F8EC
:1039D000107BD3F8107B2F40C3F8107B002C0C69B0
:1039E0007DD0002C7CD08D682C44641EB4FBF5F493
:1039F000A4B265430D62D3F8105B06EAC4442543C4
:103A0000C3F8105BD3F8104B0D6AC5F312052C43B5
:103A1000C3F8104B012A7DD0C7E00F6927B3D3F854
:103A200010796FF31207C3F81079D3F810792F408B
:103A3000C3F8107944B30F698D682F447F1EB7FB1C
:103A4000F5F506EAC545D3F810693543C3F81059B2
:103A5000D3F810590E69C6F312063543C3F810594E
:103A60000D79012D1CD027E0D3F810692E40C3F842
:103A70001069D3F8105945F40025C3F81059D3F84C
:103A800010596FF3120515E00E698D68AE4200D92A
:103A90000D61D0F8105945F40026C0F81069D7E739
:103AA000D3F8105925F0C045C3F81059D3F8105970
:103AB00045F00055C3F81059012A1AD000EB441301
:103AC000D3F8004944F00444C3F800490C79012CB0
:103AD00032D00A697AB3D0F83428097801E040E09E
:103AE00052E001F00F03012199400A43C0F8342845
:103AF00071E0CA691AB100EB4413C3F814290979BB
:103B0000012910D1D0F80818C90500EB4411D1F8EB
:103B1000002900E045E002D442F0005201E042F00A
:103B20008052C1F8002900EB4410D0F8001941F090
:103B30000441C0F800194EE0D0F80848E405D3F875
:103B4000004902D444F0005401E044F08054C3F82A
:103B5000004900920A8A93B20A78C96800F0E4F931
:103B600039E00CB18C680C618C680C62D0F8105B89
:103B7000C4F312042543C0F8105BD0F8104B44F492
:103B80000024C0F8104B45E7D3F8104B8D68C5F3FF
:103B900012052C43C3F8104BD3F8104B44F4002407
:103BA00036E7CA680AB1C3F8142B097901290CD188
:103BB000D0F80808C005D3F8000B02D440F000503C
:103BC00001E040F08050C3F8000BD3F8000B40F048
:103BD0000440C3F8000B0020F8BD0000FFFF07E021
:103BE00038B50022009213464D780A7842F21074DC
:103BF00000EB4212012D19D0D2F8005B002D3CDA07
:103C0000D2F8005B45F00065C2F8005B0A7800EB73
:103C10004212D2F8005B45F08045C2F8005B009A82
:103C2000521C0092A24221D9012326E0D2F8005969
:103C3000002D22DAD2F8005945F00065C2F800598B
:103C40000A7800EB4212D2F8005945F08045C2F8DC
:103C50000059009A521C0092A242E5D80A7800EB63
:103C60004212D2F80029002AF3DB06E00A7800EBC2
:103C70004212D2F8002B002AD1DB184638BD8168E9
:103C800041F00101816000207047000008B500226A
:103C90000C490092009B5B1C00938B420AD803697D
:103CA000002BF7DA009210220261009A521C009257
:103CB0008A4201D9032008BD0269D206F5D400204A
:103CC00008BD0000400D030018B500230D4A009305
:103CD000009C641C009494420CD80469002CF7DA10
:103CE0000093202343EA811101610099491C00914E
:103CF000914201D9032018BD01698906F5D400203D
:103D000018BD0000400D0300D0F8080810F00600B0
:103D100004D0022803D0062801D00F2070470220CB
:103D20007047406900F001007047D0F81818D0F8CB
:103D30001C08084080B27047D0F81818D0F81C084A
:103D40000840000C704710B5D0F81038D0F834286F
:103D500001F00F0400EB4110E24002F00102D0F844
:103D6000080943EAC212104010BD00EB4111D1F81E
:103D7000081BD0F814080840704741698069084062
:103D8000704730B503460846940802F0030100224C
:103D900003F5805303E01D6840F8045B521CA24207
:103DA000F9D300290BD01C680022D50024FA05F3B2
:103DB000491E521C090400F8013B090CF5D130BD25
:103DC00070B50446C068002520F0C040E0600129BD
:103DD00001D079B120E0E06840F00050E0600120BF
:103DE000FCF7D6FC60696D1C10F0010F10D1322D6C
:103DF000F5D30DE0E06840F08040E0600120FCF782
:103E0000C7FC60696D1C10F0010F01D0322DF5D395
:103E1000322D01D0002070BD012070BDD0F80028E7
:103E200022F4FE62C0F80028D0F800284FF4FE63A8
:103E300003EA01110A43C0F800280020704700007F
:103E4000022A3ED1264A274B0A449A4201D20F2128
:103E500038E0254A254B0A449A4201D20E2131E02E
:103E6000234A244B0A449A4201D20D212AE0224AD5
:103E7000224B0A449A4201D20C2123E0204A214BD2
:103E80000A449A4201D20B211CE01F4A1F4B0A44EC
:103E90009A4201D20A2115E01D4A1E4B0A449A4259
:103EA0000FD31D4A1D4B0A449A4201D2082109E052
:103EB0001B4A11441B4A914201D2072102E006210C
:103EC00000E00921C26822F47052C260C2684FF457
:103ED000705303EA81210A43C2600020704700004A
:103EE000405327FF00350C00401E1BFF40420F00CF
:103EF00000DC0BFF804F1200808CF9FE20D61300EF
:103F000060B6E5FE60E3160000D3CEFE40771B00EE
:103F1000C05BB3FEC091210000CA91FE207538003D
:103F2000E05459FEE09C410010B5029C74B9DB1CC2
:103F30009C0800EB0230002300F5805004E000BF35
:103F400051F8042B02605B1CA342F9D3002010BD82
:103F5000FEE70907090E002804DB00F1E02080F8E5
:103F60000014704700F00F0000F1E02080F8141DED
:103F700070470000FCF776FDFEF797FAFEF712F99E
:103F8000FEF75CF9FEF7A4F900211548FEF712F8D8
:103F9000144D134C4FF448764FF4C8787700E87806
:103FA000AB2802D0A02807D00AE02068C662E660ED
:103FB0002168C1F83480F2E700210948FEF774F85F
:103FC000E878E02803D100210548FDF7F3FFE87801
:103FD000CD28E4D12068C762E76020684663DEE749
:103FE0008C010020600000200000000000000000A4
:103FF0000102030406070809184000080000002019
:104000008C010000C0010008D84000088C0100208D
:10401000743A00001C020008139D2B1B08CD041AE3
:10402000D90413012C1B082D041A7D0C1AA904179E
:1040300004030904120114020202164083044057CB
:10404000260201020301031A1A0313FD061B08F7D7
:10405000041AF3041321078208193711821053241C
:10406000F4130A0632022A401C1C0902435F111D88
:10407000C03209042D1A020B130524161001052461
:104080000110090104240202052406170107058214
:1040900003081C10090495320A1D07050102432C70
:1040A000070581070938442A40072A8107112B098F
:1040B00007440A3C0444122914086F281B08F1081D
:1040C000411AB30C13F7271B084108C11AF1101A43
:0840D000E5041AFD041AD904ED
:040000050800018569
:00000001FF
